:0300000002139E4A
:0C139E00787FE4F6D8FD7581200213E58D
:1011A00043757272656E745F48756D5F766F6C3AE9
:1011B0000025004C696768745F496E74656E7369D9
:1011C00074790048756D692654656D7000416972C7
:1011D0005F5175616C6974793A00657370383236A5
:1011E00036746573740041542B43495053454E4443
:1011F0003D302C37300D0A00CDC1C8C0CAAAB6C8D0
:101200003A00252020B9E2D5D5C7BFB6C83A002597
:101210002020BBB7BEB3CEC2CAAAB6C83A0020BF10
:10122000D5C6F8D6CAC1BF4151493D3A000D0A00A2
:1012300046414E2020474F0046414E53544F5000E8
:1012400050554D502020474F0050554D5053544F4E
:0212500050004C
:0419FC008203000062
:1009FE001219851219A71218DF12192F121252127C
:100A0E0017E8D2A8C288D2AFE4781DF2781DE2FFB3
:100A1E00C394045058EF14601A14602714603424E1
:100A2E000370437D417F901218117F901217BF788B
:100A3E000F802E7D427F901218117F901217BF7873
:100A4E0011801E7D437F901218117F901217BF7870
:100A5E0013800E7D407F901218117F901217BF7871
:100A6E0015E4F208EFF2781DE204F2809F1210D125
:100A7E007813E2FC08E2FDE4120F2E78081210C57E
:100A8E00E4FBFA79297843C0007808E2FC08E2FD1D
:100A9E0008E2FE08E2FFD000120E8CE4FBFA79C8E1
:100AAE007842120D8378081210C57808E2FC08E22D
:100ABE00FD08E2FE08E2FF120F677806EEF208EF7D
:100ACE00F27817EEF208EFF2780FE2FE08E2FFC3BB
:100ADE0074FF9FFDE49EFCE4120F2E78081210C5E1
:100AEE00E4FBFA797F7843C0007808E2FC08E2FD67
:100AFE0008E2FE08E2FFD000120E8CE4FBFA79C881
:100B0E007842120D8378081210C57808E2FC08E2CC
:100B1E00FD08E2FE08E2FF120F677806EEF208EF1C
:100B2E00F27819EEF208EFF2C2A87803E2FE08E2BC
:100B3E00FFEE6003020C51EF146026146056147021
:100B4E0003020BE5147003020C0A24046003020C6A
:100B5E00517BFF7A1179A0E4FDFF121608781780F9
:100B6E000E7BFF7A1179B3E4FDFF1216087819E2B5
:100B7E00FA08E2FB78457403F2087410F27D027FE6
:100B8E000F1213027BFF7A1179B17D027F281216A4
:100B9E0008020C517BFF7A1179C3E4FDFF1216088F
:100BAE00E47826F208F27826E2FE08E2FFC3940902
:100BBE00EE94005020AE07EE75F00AA4FF74362EA8
:100BCE00F8E2FB7D021214A57827E22401F218E266
:100BDE003400F280D180667BFF7A1179CDE4FDFF7F
:100BEE001216087815E2FA08E2FB78457403F2084B
:100BFE007410F27D027F0F12130280477BFF7A1171
:100C0E0079DAE4FDFF121608E47826F208F2782667
:100C1E00E2FE08E2FFC39408EE94005020AE07EE09
:100C2E0075F00AA4FF741E2EF8E2FB7D031214A5C4
:100C3E007827E22401F218E23400F280D1E478261B
:100C4E00F208F2C37818E2945A18E2940050051292
:100C5E00199680031219A77836E275F00AA4FF08D8
:100C6E00E22F7805F224F0F2D39450400512197455
:100C7E008003121985D2A8200003020A16781FE2FB
:100C8E00FF782AF224CF7003020D43147003020D75
:100C9E006324026003020A167BFF7A1179E61217AB
:100CAE008B7F147E001218FD7BFF7A1179F81217D4
:100CBE008B78171215647BFE7A00790C12178B7BDA
:100CCE00FF7A12790212178B78191215647BFE7A4D
:100CDE0000790C12178B7BFF7A12790F12178BE4A7
:100CEE007826F208F27826E2FE08E2FFC39409EEB7
:100CFE009400501674362FF8E2FF1219F47827E29A
:100D0E002401F218E23400F280DBE47826F208F2D5
:100D1E007BFF7A12791E12178B78151215647BFEE3
:100D2E007A00790C12178B7BFF7A12792D12178BA2
:100D3E00C200020A161219747FE87E031218FD7F94
:100D4E00E87E031218FD7FE87E031218FD12198546
:100D5E00C200020A161219967FE87E031218FD7F52
:100D6E00E87E031218FD7FE87E031218FD1219A704
:050D7E00C200020A168C
:030003000216DF03
:1016DF00C0E0C0F0C083C082C0D075D008C2A812CD
:1016EF0017E87804E22401F218E23400F2D308E29A
:1016FF00940418E294004004E4F208F230B2FDD2F0
:0C170F00A8D0D0D082D083D0F0D0E0323F
:030023000215B70C
:0B15B700C0E0C0D075D000C000C0072D
:1015C200309833AF99C298EF643A600CD37827E22F
:1015D200940018E29400401C782608E2241EF8EFDA
:1015E200F27827E22401F218E23400F2EFB40A049E
:0D15F200E4F208F2D200309904C299C2025E
:0915FF00D007D000D0D0D0E032BA
:05156400E2FE08E2FFB9
:10156900AB07AA067C007D64121062EF2430780C68
:10157900F27C007D64AF03AE021210627E007F0A26
:10158900CFCDCFCECCCE121062EF2430780DF2AE93
:1015990002AF037C007D641210627E007F0ACFCD0A
:0E15A900CFCECCCE121062ED2430780EF2229E
:10197400D282C2837BFF7A1279307D067F460216BB
:01198400085A
:10198500C282C2837BFF7A1279387D067F460216B2
:011995000849
:10199600D280C2817BFF7A1279407D06E4FF02166F
:0119A6000838
:1019A700C280C2817BFF7A1279497D06E4FF021665
:0119B7000827
:101755007800EFF208EDF208EBF212195E7800E27C
:10176500FF1216A2200102C3227801E2FF1216A27F
:10177500200102C3227802E2FF1216A2200102C351
:06178500221219DAD32242
:101811007841EFF208EDF212195E7841E2FF1216FB
:10182100A2200102C3227842E2FF1216A220010285
:07183100C3221219DAD322D1
:0417BF007841EFF28C
:1017C30012195E7841E204FF1216A22001037F0082
:1017D300221218387842EFF2D2031219171219DACB
:0417E3007842E2FF67
:0117E70022DF
:100026000000000000000000002F00000000070094
:10003600070000147F147F1400242A7F2A1200620E
:1000460064081323003649552250000005030000BA
:1000560000001C224100000041221C000014083E42
:1000660008140008083E0808000000A06000000808
:10007600080808080000606000000020100804025C
:10008600003E5149453E0000427F4000004261511A
:100096004946002141454B31001814127F100027B4
:1000A60045454539003C4A49493000017109050377
:1000B60000364949493600064949291E00003636A8
:1000C600000000005636000000081422410000140B
:1000D60014141414000041221408000201510906E8
:1000E60000324959513E007C1211127C007F494969
:1000F6004936003E41414122007F4141221C007F9A
:1001060049494941007F09090901003E4149497AA7
:10011600007F0808087F0000417F41000020404121
:100126003F01007F08142241007F40404040007F8D
:10013600020C027F007F0408107F003E4141413ED1
:10014600007F09090906003E4151215E007F091919
:1001560029460046494949310001017F0101003F16
:100166004040403F001F2040201F003F4038403F96
:1001760000631408146300070870080700615149FA
:10018600454300007F41410000552A552A5500008D
:1001960041417F000004020102040040404040400B
:1001A600000001020400002054545478007F4844A3
:1001B600443800384444442000384444487F0038DA
:1001C6005454541800087E0901020018A4A4A47C03
:1001D600007F080404780000447D400000408084CD
:1001E6007D00007F102844000000417F4000007C15
:1001F60004180478007C0804047800384444443821
:1002060000FC242424180018242418FC007C08046C
:10021600040800485454542000043F444020003C45
:100226004040207C001C2040201C003C4030403CCC
:10023600004428102844001CA0A0A07C004464545C
:100246004C441414141414140000000000000000A0
:100256000000000000000000000000F800000000A0
:10026600000000333000000000100C06100C0600E1
:10027600000000000000000040C07840C078400048
:10028600043F04043F040400007088FC08300000AA
:10029600001820FF211E0000F008F000E018000002
:1002A60000211C031E211E0000F0088870000000BB
:1002B6001E2123241927211010160E00000000000D
:1002C6000000000000000000000000E0180402002A
:1002D600000000071820400000020418E00000009B
:1002E6000040201807000000404080F08040400099
:1002F6000202010F01020200000000F000000000EF
:100306000101011F010101000000000000000000C2
:1003160080B0700000000000000000000000000037
:1003260000010101010101010000000000000000C0
:10033600003030000000000000000000806018045B
:10034600006018060100000000E010080810E00038
:10035600000F102020100F00001010F80000000001
:100366000020203F20200000007008080888700048
:1003760000302824222130000030088888483000C8
:100386000018202020110E000000C02010F80000E8
:1003960000070424243F240000F808888808080081
:1003A6000019212020110E0000E010888818000096
:1003B600000F112020110E0000380808C838080068
:1003C6000000003F000000000070880808887000E8
:1003D600001C222121221C0000E010080810E00069
:1003E6000000312222110F00000000C0C0000000F2
:1003F6000000003030000000000000800000000017
:10040600000080600000000000008040201008000E
:1004160000010204081020004040404040404000D7
:1004260004040404040404000008102040800000B2
:100436000020100804020100007048080808F000B7
:100446000000003036010000C030C828E810E00087
:100456000718272423140B000000C038E000000012
:10046600203C23020227382008F88888887000007C
:10047600203F202020110E00C03008080808380050
:10048600071820202010080008F808080810E000C7
:10049600203F202020100F0008F88888E808100068
:1004A600203F20202320180008F88888E80810003C
:1004B600203F200003000000C03008080838000074
:1004C60007182020221E020008F808000008F80875
:1004D600203F210101213F20000808F808080000FC
:1004E6000020203F2020000000000808F80808002F
:1004F600C08080807F00000008F888C028180800A7
:10050600203F20012638200008F8080000000000DF
:10051600203F20202020300008F8F800F8F80800D6
:10052600203F003F003F200008F830C00008F808D0
:10053600203F200007183F00E01008080810E000E0
:100546000F10202020100F0008F808080808F000F7
:10055600203F210101010000E01008080810E0001A
:100566000F18242438504F0008F8888888887000AF
:10057600203F2000030C302000708808080838004F
:100586000038202121221C00180808F80808180045
:100596000000203F2000000008F808000008F808C6
:1005A600001F202020201F000878880000C8380877
:1005B600000007380E010000F80800F80008F800EF
:1005C600033C0700073C0300081868808068180889
:1005D60020302C03032C30200838C800C838080007
:1005E6000000203F2000000010080808C838080056
:1005F6002038262120201800000000FE02020200FA
:100606000000007F40404000000C30C000000000A9
:10061600000000010638C00000020202FE000000D1
:10062600004040407F000000000004020202040077
:1006360000000000000000000000000000000000B4
:10064600808080808080808000020204000000009C
:100656000000000000000000000080808080000094
:100666000019242222223F2008F800808000000082
:10067600003F112020110E00000000808080000045
:10068600000E112020201100000000808088F80054
:10069600000E112020103F20000080808080000086
:1006A600001F222222221300008080F088888818EA
:1006B6000020203F202000000000808080808000F5
:1006C600006B94949493600008F80080808000008A
:1006D600203F210000203F20008098980000000065
:1006E6000020203F20200000000000809898000095
:1006F60000C08080807F000008F8000080808000B5
:10070600203F24022D302000000808F800000000D9
:100716000020203F20200000808080808080800094
:10072600203F20003F20003F808000808080000026
:10073600203F210000203F200000808080800000B4
:10074600001F202020201F008080008080000000E5
:1007560080FFA12020110E00000000808080800014
:10076600000E112020A0FF80808080008080800005
:1007760020203F2120000100000080808080800032
:100786000033242424241900008080E080800000A7
:100796000000001F202000008080000000808000F4
:1007A600001F202020103F20808080000080808055
:1007B60000010E30080601008080008000808080E5
:1007C6000F300C030C300F0000808000808080000A
:1007D6000020312E0E312000808080000080808035
:1007E60080818E70180601000080808080808000E5
:1007F6000021302C2221300000000000807C020203
:1008060000000000003F404000000000FF00000024
:1008160000000000FF0000000002027C80000000D3
:100826000040403F000000000006010102020404EF
:1008360000000000000000000000F010101010FF83
:1008460010101010F0000000000000000000000072
:10085600000000000000000000000F04040404FF74
:10086600040404040F000000000000000000000063
:1008760000000000000000004040405F55555575DF
:100886005555555F40404000000000000000000044
:1008960000000000000000000040200F094989798F
:1008A6000909090F204000000000000000000000B8
:1008B600000000000000000000FE02424ACA4A4A48
:1008C600CA4A4A4202FE0000000000000000000082
:1008D600000000000000000000FF40504C43404074
:1008E6004F50505C40FF0000000000000000000078
:1008F60000000000000000000000F888888888FFDB
:1009060088888888F80000000000000000000000C9
:10091600000000000000000000001F080808087F13
:10092600888888889F80F000000000000000000092
:10093600000000000000000080828282828282E243
:10094600A2928A86828080000000000000000000DB
:100956000000000000000000000000000040807F52
:100966000000000000000000000000000000000081
:1009760000000000000000002424A4FEA3220022A0
:10098600CC0000FF00000000000000000000000096
:100996000000000000000000080601FF000104043A
:1009A600040404FF02020200000000000000000030
:1009B6000000000000000000101010FF10900888D2
:1009C6008888FF8888880800000000000000000072
:1009D60000000000000000000444827F0180804087
:1009E600432C102846818000000000000000000013
:0809F6000000000000000000F9
:1018FD00EF4E60157D507C00ED1DAA0470011C4A51
:09190D0070F6EF1F70EA1E80E77E
:0119160022AE
:10171B00F583E5822CF582E43583F583E493FF7D35
:01172B0001BC
:10172C00ED6004D2A48002C2A4C2A3E4FEC2A7EF5F
:10173C0030E704D2A68002C2A6D2A7EF25E0FF0EA6
:08174C00EEB408E9D2A3D2A417
:011754002272
:10188100AC07ED24B0FFE4FD12172CEC54F0C45466
:101891000F4410FF12172CEC540F4401FF02172CB8
:1019B800E4FD7F8D12172C7F1412172C7FAF0217AE
:0119C8002CF2
:1019C900E4FD7F8D12172C7F1012172C7FAE0217A2
:0119D9002CE1
:1017E800E4FCEC24B0FFE4FD12172CE4FF12172CE4
:1017F8007F1012172CE4FB7D01E4FF12172C0BEB72
:08180800B480F40CECB408DA22
:0118100022B5
:0614A500AA07A905AF0330
:1014AB00E4FCEF24E0FBEAD3947F4004E4FA09095F
:1014BB00AF02AD01121881E4FC75F010EBA42CF512
:1014CB0082E435F0F583E582244EF582E583340220
:1014DB001217250CECB408E1AF02E904FD121881D8
:1014EB00E4FC75F010EBA42CF582E435F0F583E504
:1014FB00822456F582E58334021217250CECB408CE
:02150B00E122DB
:06000600784AEFF2A905A3
:10000C007F017E00AD0119ED600B784AE2FD7C00AA
:05001C0012105080EFFE
:0100210022BC
:0D1302007841EFF208EDF208EAF208EBF294
:10130F00E47849F27847F27845E2FF7847E2FEC386
:10131F009F507BC3EF9E14FD7F0A1200067843E2B5
:10132F00FC08E2FDCFCDCFCECCCE1210627C007D7B
:10133F000A1210627848EDF208E2702B7845E21439
:10134F00FF7847E2FEC39F501E08E270157846E211
:10135F00C3138EF0A4FF7841E22FFF08E2FD7B203C
:10136F00802178497401F27846E2C313FF08E2FE48
:10137F00EF8EF0A4FF7841E22FFF08E2FD7848E2FC
:0E138F002430FB1214A57847E204F202131674
:01139D00222D
:101608007841EFF208EDF208EBF208EAF208E9F2A5
:10161800E408F27843E2FB08E2FA08E2F908E2F5A6
:1016280082758300121023FB60237841E2FF08E2F1
:10163800FD1214A518E22408F2E2D394784007E4D6
:0D164800F208E22402F27846E204F280C6C5
:011655002272
:04165600A907AA0531
:10165A00E4782BF2121881E4FC75F040EBA4243EE6
:10166A00F582E5F0340812171B782BE204F20CEC31
:10167A00B410E6AF01EA04FD121881E4FC75F040EB
:10168A00EBA4245EF582E5F0340812171B782BE2EE
:07169A0004F20CECB410E6B1
:0116A1002226
:08142A00782CEFF2782EEBF2B2
:10143200E47833F208F2782FE2FF54077008EF13D2
:101442001313541F8009782FE2131313541F0478C7
:1014520035F27835EDF2782FE2FF7835E2FDC39F61
:101462005040782CE2FF121881E2FC782EE2FFEC69
:10147200C39F50277830E2FB08E2FA08E2F9080835
:10148200E2FF2401F218E2FE3400F28F828E831210
:101492001023FF7D0112172C0C80D07835E204F264
:0214A20080B414
:0114A4002225
:10125200D2A57F647E001218FDC2A57F647E0012B3
:1012620018FDD2A5E4FD7FAE12172CE4FF12172C55
:101272007F1012172C7F4012172C7F8112172C7FA0
:10128200CF12172C7FA112172C7FC812172C7FA602
:1012920012172C7FA812172C7F3F12172C7FD31204
:1012A200172CE4FF12172C7FD512172C7F801217F0
:1012B2002C7FD912172C7FF112172C7FDA12172CE0
:1012C2007F1212172C7FDB12172C7F4012172C7FF4
:1012D2002012172C7F0212172C7F8D12172C7F14CD
:1012E20012172C7FA412172C7FA612172C7FAF1275
:1012F200172C7FAF12172C1217E8E4FDFF0218819A
:10195E00D29100D2900000000000C2910000000061
:06196E0000C290000022FF
:1019DA00C29100D2900000000000D29100000000E5
:0119EA0022DA
:1016A200E4FEEFA806088002C333D8FC30E704D278
:1016B200918002C29100D2900000000000C2900E00
:1016C200EEB408DE0000D2910000D290000000309B
:0C16D2009104C2018002D201C29000000D
:0116DE0022E9
:10183800E4FFD291FE00C2900000000000D29000A8
:1018480000EF25E0FF3091010F00000EEEB408E52F
:04185800C29000003A
:01185C002269
:10191700200304C2918002D291000000D2900000FF
:08192700000000C29000002244
:031A0300DFFE22E1
:1018A100D3EF9400EE6480948040147D6E7C00ED53
:0F18B1001D70011CED4C70F7EF1F70E41E80E1FD
:0118C0002205
:10194700D2B67F02121A03C2B67F147E001218A104
:07195700D2B67F1E021A0345
:1018C100E4FEFD30B6FD7F08121A03EE25E0FE307E
:0D18D100B6010E20B6FD0DEDB408E8AF061F
:0118DE0022E7
:1010D10012194730B60302119F30B6FD7F28121A4C
:1010E100031218C17841EFF21218C108EFF2121879
:1010F100C108EFF21218C1A9071218C17846EFF220
:101101007F19121A037842E2FF3395E0FE18E2FDDF
:101111003395E0FCED2FFFEC3EFE7843E2FD339585
:10112100E0FCEF2DFFEE3CFEE9FD3395E0FCEF2DF9
:10113100FFEE3CFE7846E2FD3395E0FCEFB5051687
:10114100EEB504127841E2FA08E27844F218E2FBC3
:10115100AF017845EFF2EA75F00A120FE824307812
:1011610036F2EA75F00A120FE8AFF0EF2430783763
:10117100F2087452F2087448F2087420F208F2EB93
:1011810075F00A120FE82430783CF2EB75F00A1280
:0E1191000FE8AFF0EF2430783DF2087443F21F
:01119F00222D
:10185D0041542B4349504D55583D310D0A004154CB
:10186D002B4349505345525645523D312C38303853
:04187D00300D0A0020
:021A0000C10221
:0819EB007F657E93DEFEDFFA4A
:0119F30022D1
:1018DF0075985075CDFF75CCFD75CBFF75CAFDD2D0
:0E18EF00CCD2CDC2C9C2CBD2CAD2AFD2AC22AB
:0819F4002002FD8F99D20222AE
:10178B007841EBF208EAF208E9F27841E2FB08E271
:10179B00FA08E2F912100A601A7841E2FB0808E233
:1017AB00F92401F218E2FA3400F212100AFF1219AE
:0417BB00F480D722BD
:04150D00AB07AA0678
:101511007C007D64121062783FEFF27C007D64AF45
:1015210003AE021210627E007F0ACFCDCFCECCCEA9
:101531001210627840EFF2AE02AF037C007D6412BC
:1015410010627E007F0ACFCDCFCECCCE121062AE1C
:1015510005783FE2FF1219F408E2FF1219F4AF0611
:031561000219F478
:10192F007BFF7A18795D12178B1219EB7BFF7A18F0
:08193F00796B12178B0219EB02
:100D8300EC4D6011E8497017ED33EC3304600DE46A
:100D9300FCFFFEFD22E933E8330470F8020FD3129F
:100DA3000F9E58046009E4CC2481500628500902A0
:100DB3000FDD284003020FDAC0E0EB4A7044B9802C
:100DC30006D0E0FB020FC9EF4E701CBD8008EBFF9D
:100DD300EAFEE9FD80EBE98DF0A4FEE5F0020E6C7E
:100DE300E9CDF9EAFEEBFFEF89F0A4FCE5F0CE894B
:100DF300F0A42EFFE435F0CD89F0A42DFEE435F008
:100E03008067EF4E7005BD80D780C3EF8BF0A4AC35
:100E1300F0EE8BF0A42CFCE435F0F8EF8AF0A42C70
:100E2300E5F038FCE433CB8DF0A42CFCE5F03BF883
:100E3300EE8AF0A42CFCE5F038F8E433CF89F0A473
:100E43002CFCE5F038CF3400CE89F0A42FFFE5F079
:100E53003EFEE433C98DF0A42EFEE5F039CD8AF0D1
:100E6300A42FFFE5F03EFEE43DFD33D0E0FB500749
:100E73000BBB000F020FDDEC2CFCEF33FFEE33FE58
:060E8300ED33FD020FB586
:100E8900020FDDEC5D046005E859047003020FD31D
:100E9900120F9E580460F6EC4860F2EC7004FDFEF7
:100EA900FF22C860DB2481C85009C398600250063C
:100EB900020FDA9850CAF582E9294B4A7005AB82CC
:100EC900020FC975F0007C1A7880C3EF9BEE9AED8A
:100ED90099400DC3EF9BFFEE9AFEED99FDE842F0B4
:100EE900DC23ACF0D0E0FFD0E0FED0E0FDAB822007
:100EF900E7101BEB60BAEC2CFCEF33FFEE33FEED91
:100F090033FD020FB5E803F830E705C0F075F000CE
:100F1900EF2FFFEE33FEED33FD40B830E7C280AA74
:100F290075F020800E75F010800575F0087D007E43
:100F3900007F003392D530D5031210B7EC3340103F
:100F4900EF33FFEE33FEED33FDEC33FCD5F0ED224C
:0E0F5900E5F0247EA2D513CC92E7CDCEFF2288
:100F6700EDD2E7CD33EC3392D524814006E4FFFE82
:100F7700FDFC22FCE4CFCECDCC24E0501174FF80E1
:100F8700EDC3CC13CCCD13CDCE13CECF13CF04707E
:070F9700F030D5DE0210B7B7
:100F9E00E9D2E7C933E833F892D5EDD2E7CD33EC99
:070FAE0033FC5002B2D52212
:100FB500EC30E7100FBF000C0EBE00080DBD00049D
:100FC5000BEB6014A2D5EB13FCED92E7FD2274FF49
:100FD500FCFDFEFF22E480F8A2D574FF13FC7D80A2
:030FE500E480EFB6
:1013AA000209FEE493A3F8E493A34003F68001F252
:1013BA0008DFF48029E493A3F85407240CC8C33344
:1013CA00C4540F4420C8834004F456800146F6DF13
:1013DA00E4800B01020408102040809019FCE47E8E
:1013EA00019360BCA3FF543F30E509541FFEE49308
:1013FA00A360010ECF54C025E060A840B8E493A3CF
:10140A00FAE493A3F8E493A3C8C582C8CAC583CAF9
:10141A00F0A3C8C582C8CAC583CADFE9DEE780BEB1
:011A020000E3
:100FE800C2D530F707B2D563F0FF05F030E70CB291
:100FF800D5F4048463F0FF05F080018430D502F451
:021008000422C0
:10100A00BB010689828A83E0225002E722BBFE02E4
:09101A00E32289828A83E4932217
:10102300BB010CE58229F582E5833AF583E0225082
:1010330006E92582F8E622BBFE06E92582F8E222CC
:0D104300E58229F582E5833AF583E49322E6
:10105000EF8DF0A4A8F0CF8CF0A428CE8DF0A42EB4
:02106000FE226E
:10106200BC000BBE0029EF8DF084FFADF022E4CC72
:10107200F875F008EF2FFFEE33FEEC33FCEE9DEC3B
:10108200984005FCEE9DFE0FD5F0E9E4CEFD22ED81
:10109200F8F5F0EE8420D21CFEADF075F008EF2FCB
:1010A200FFED33FD4007985006D5F0F222C398FDBC
:0510B2000FD5F0EA2259
:0E10B700C3E49FFFE49EFEE49DFDE49CFC224A
:0C10C500ECF208EDF208EEF208EFF22267
:00000001FF
